:020000040000fa
:080000000002040000000000f2
:020000040000fa
:100400000f2821000e7f22000e018800000000004e
:100410000c00070060df250001002000110007002c
:10042000000020000000e000020032000000020096
:100430000000000066570200000000000040da00e3
:100440000000fe004440a900206e20000000e000f3
:100450000300320000002000a00188004440a800f2
:100460000000060091018800800078000000eb0089
:1004700015003700e280400032a0b4009101ba00bc
:10048000e280400032a0b4009102ba00e280400055
:1004900032a0b4000002eb00472bde00f507b200eb
:1004a000602ce10004003a000059eb008301e900f0
:1004b000fdff3e00040037006128e100010032002a
:1004c0000082eb00040007001101ba000200e00006
:1004d000e8ff3a00000006003159ba008301e90044
:1004e0000c0032002159ba008301e90008003200f3
:1004f0000400e00003003a00e280400032a0b400b3
:10050000f5ff370011d9ba008301e900faff3a007c
:100510008100e800e180400032a0b4000000060045
:1005200000000000000000000000000000000000cb
:100530000040da000000fe00889fbe0080047800c2
:10054000f04f80000000e00003003a0010000700b8
:100550000000e0000a003500f04f80000900e000d4
:1005600002003a000004780006003700000478001a
:1005700009004000060007000000e00001003d0007
:100580000084eb00080078004f04be000000060065
:10059000800078000000e00004003a0000a820007d
:1005a000f04f880001017800060037000081eb0061
:1005b00000282100808f500002003e00f14f88008b
:1005c0000001eb000200780000000600889fbe00da
:1005d0008a9fbe008c9fbe000001780081a720008a
:1005e0001100e0000b003a00c0a72000c0538800b3
:1005f000a0538800e1538800b15388002140900047
:100600000004a000a0409800614090000004a000f9
:10061000e0409800e7004100c208de00c20cdd00a7
:10062000b45380000da82000002821000d055000c3
:1006300022002000811f7800110009000205d80067
:1006400000067800cf007800c308dd00e485400094
:100650008001eb0006a8200085a7200001003700dc
:1006600001027800244090000008a300020032003c
:100670000a003700110a78009400780021409000a9
:100680000008a300fbff320009014200828f5000e6
:1006900002003900840f51004600310094007800b8
:1006a000848f5000eeff3e00868f5000020039001c
:1006b000858f5000eaff3900a0538000800f520060
:1006c0004f003a00858f50004d003a008301e8004a
:1006d000e18f5100e2ff36008c8f54000400360099
:1006e0008a8f5400020031000b047800120037009a
:1006f000614ab8006151b900b0ff2f00010020002d
:100700000200500083805800800f5200818f5a00f1
:100710000200350009047800070037000d805400fe
:100720003228210002004000110009000a80d80090
:100730000a80b90000047800080078007eff0700f6
:1007400080017800e10f40002d003200a0538000ae
:1007500003087800a253800064004100a24090008a
:10076000808f5100020032000104a0000100370018
:100770000104a1002141980008804100640050005c
:1007800080097800a053880082a720000208780022
:10079000a1538000214090000004a000a0409800d8
:1007a000234090000004a100a041980002027800bc
:1007b000a7ff3700b2538800828f5000090036002f
:1007c0009200780020a72000a24190000348780002
:1007d00081538800140978008040eb00b0538000fa
:1007e00021409800b0538000000a78002440900017
:1007f0000004a0002042980064004200010037007d
:100800000000eb004f06be004f05be004f04be00c7
:100810000000060064005000b0538800a040900023
:100820000104a1002140980000000600889fbe003e
:100830008a9fbe0000057800e401500013001000fc
:10084000c285de00234090000008a30004003200af
:10085000b3538800234090000004a100a0419800f9
:100860000100780059ff0700000478000000e00054
:10087000170032008a0f50001500320060b8970050
:1008800008005000c284de00898f55000100360048
:10089000890578004259dd008a0078000800780058
:1008a0000f0007008a0f5400090031004248dd00a4
:1008b000000044008a0f5000050036000a00500076
:1008c0000000440082538000935380000288be00e1
:1008d000080078004f05be004f04be00000006006f
:1008e0008001eb000200370061f079008301e8002d
:0c08f000828f5100fcff3a00000006005f
:020000040000fa
:020000040001f9
:0457f00033ff000083
:020000040000fa
:020000040001f9
:0457f400c0fc0000f5
:020000040000fa
:020000040001f9
:0457f8008e8b000094
:020000040000fa
:020000040001f9
:0457fc00603f00000a
:020000040000fa
:100008009802000098020000980200009802000080
:100018009802000098020000980200009802000070
:100028009802000098020000980200009802000060
:100038009802000098020000980200009802000050
:100048009802000098020000980200009802000040
:100058009802000098020000980200009802000030
:100068009802000098020000980200009802000020
:100078009802000098020000980200009802000010
:100088009802000098020000980200009802000000
:1000980098020000980200009802000098020000f0
:1000a80098020000980200009802000098020000e0
:1000b80098020000980200009802000098020000d0
:1000c80098020000980200009802000098020000c0
:1000d80098020000980200009802000098020000b0
:1000e80098020000980200009802000098020000a0
:1000f8009802000098020000980200009802000090
:10010800980200009802000098020000980200007f
:10011800980200009802000098020000980200006f
:10012800980200009802000098020000980200005f
:10013800980200009802000098020000980200004f
:10014800980200009802000098020000980200003f
:10015800980200009802000098020000980200002f
:10016800980200009802000098020000980200001f
:100178009802000098020000ac39000098020000c4
:1001880098020000980200009802000098020000ff
:1001980098020000980200009802000098020000ef
:1001a80098020000980200009802000098020000df
:1001b80098020000980200009802000098020000cf
:1001c80098020000980200009802000098020000bf
:1001d80098020000980200009802000098020000af
:1001e800980200009802000098020000980200009f
:0801f8009802000098020000cb
:020000040000fa
:10020800980200009802000098020000980200007e
:10021800980200009802000098020000980200006e
:10022800980200009802000098020000980200005e
:10023800980200009802000098020000980200004e
:10024800980200009802000098020000980200003e
:10025800980200009802000098020000980200002e
:10026800980200009802000098020000980200001e
:10027800980200009802000098020000980200000e
:1002880098020000980200009802000098020000fe
:1002980098020000980200009802000098020000ee
:1002a80098020000980200009802000098020000de
:1002b80098020000980200009802000098020000ce
:1002c80098020000980200009802000098020000be
:1002d80098020000980200009802000098020000ae
:1002e800980200009802000098020000980200009e
:1002f800980200009802000098020000980200008e
:10030800980200009802000098020000980200007d
:10031800980200009802000098020000980200006d
:10032800980200009802000098020000980200005d
:10033800980200009802000098020000980200004d
:10034800980200009802000098020000980200003d
:10035800980200009802000098020000980200002d
:10036800980200009802000098020000980200001d
:100378009802000098020000ac39000098020000c2
:1003880098020000980200009802000098020000fd
:1003980098020000980200009802000098020000ed
:1003a80098020000980200009802000098020000dd
:1003b80098020000980200009802000098020000cd
:1003c80098020000980200009802000098020000bd
:1003d80098020000980200009802000098020000ad
:1003e800980200009802000098020000980200009d
:0803f8009802000098020000c9
:020000040000fa
:1008fc00476500006e65000072690000632000000f
:10090c00646500006d6f00002064000065760000d7
:10091c0069630000652000006174000074610000d0
:10092c006368000065640000202d0000207000004a
:10093c006f6c00006c650000642c000020640000eb
:10094c006576000069630000654100006464000086
:10095c0072650000737300003d0000000d0a00007a
:10096c0000470000656e00006572000069630000be
:10097c0020640000656d00006f20000064650000bd
:10098c007669000063650000206400006574000057
:10099c006163000068650000642000002d200000e9
:1009ac00706f00006c6c0000656400000d0a0000a4
:1009bc0000480000434900005f4300004d44000024
:1009cc005f52000045530000455400003a200000df
:1009dc0000480000434900005f4300004d44000004
:1009ec005f52000045410000445f0000424400009b
:1009fc005f41000044440000523a00002000000017
:100a0c0048430000495f0000434d0000445f000074
:100a1c004d410000534b00003a20000000480000fc
:100a2c00434900005f4300004d4400005f53000049
:100a3c00434100004e5f0000454e00004142000063
:100a4c004c4500003a2000000048000043490000db
:100a5c005f4300004d4400005f410000445600001d
:100a6c0045520000545f000050410000524100000c
:100a7c004d3a00002000000048430000495f000090
:100a8c00434d0000445f0000414400005645000007
:100a9c00525400005f4500004e410000424c0000e3
:100aac00453a00002000000047410000545400006b
:100abc005f530000415200005649000043450000be
:100acc005f430000484100004e470000453a0000db
:100adc000d0a00000047000041540000545f000064
:100aec004445000056490000434500005f4e00009d
:100afc00414d0000453a00000d0a0000004700007f
:100b0c0041540000545f000050520000494d000059
:100b1c0041520000595f000053450000525600003e
:100b2c0049430000453100003a0d00000a00000066
:100b3c0047410000545400005f4200004154000043
:100b4c0054450000525900005f4e00004f57000002
:100b5c005f52000045530000313a00000d0a0000be
:100b6c000047000041540000545f00004343000064
:100b7c00435f000052450000513a00000d0a00008e
:100b8c000047000041540000545f00005052000028
:100b9c00494d000041520000595f000053450000d0
:100bac005256000049430000453200003a0d000047
:100bbc000a000000534d0000505f0000504100003f
:100bcc00495200005f520000455100003a0d0000f0
:100bdc000a000000534d0000505f0000504100001f
:100bec00495200005f4300004f4e0000465f00007a
:100bfc00494e00003a0d00000a000000534d000061
:100c0c00505f0000465500004e4300005f45000059
:100c1c005f4500004e4400003a0d00000a00000041
:100c2c00534d0000505f0000465500004e4300003d
:100c3c005f430000315f0000454e0000443a000065
:100c4c000d0a0000005300004d5000005f520000e0
:100c5c00414e0000444f00004d5f0000494e000023
:100c6c003a0d00000a000000534d0000505f0000d8
:100c7c00465500004e4300005f530000315f0000fa
:100c8c00454e0000443a00000d0a000000530000dd
:100c9c004d5000005f4c0000544b00005f520000b0
:100cac00455100003a0d00000a000000534d0000b1
:100cbc00505f00004c5400004b5f00005245000098
:100ccc00535f0000454e0000443a00000d0a00003e
:100cdc00005300004d5000005f4c0000544b0000ce
:100cec005f4900004e3a00000d0a0000005300005e
:100cfc004d5000005f520000414e0000444f000078
:100d0c004d3100005f4900004e3a00000d0a000012
:100d1c000047000041540000545f000048490000a7
:100d2c00445f00004348000041520000315f000066
:100d3c0052450000513a00000d0a00000047000027
:100d4c0041540000545f000048490000445f00001b
:100d5c004348000041520000325f00005245000041
:100d6c00513a00000d0a00000047000041540000f9
:100d7c00545f000048490000445f000043480000f5
:100d8c0041520000335f000052450000513a000010
:100d9c000d0a00000047000041540000545f0000a1
:100dac0048490000445f000052450000504f0000cd
:100dbc00525400005f52000045510000313a0000cf
:100dcc000d0a00000047000041540000545f000071
:100ddc0048490000445f000052450000504f00009d
:100dec00525400005f52000045510000323a00009e
:100dfc000d0a00000047000041540000545f000041
:100e0c0048490000445f0000444500005343000083
:100e1c005f52000045510000313a00000d0a0000fd
:100e2c000047000041540000545f00004849000096
:100e3c00445f000044450000534300005f52000033
:100e4c0045510000323a00000d0a00000047000036
:100e5c0041540000545f000048490000445f00000a
:100e6c00494e0000464f00005f5200004551000003
:100e7c003a0d00000a0000004741000054540000e5
:100e8c005f520000455000005f52000045460000d4
:100e9c005f52000045510000313a00000d0a00007d
:100eac000047000041540000545f00005245000010
:100ebc00505f000052450000465f000052450000a4
:100ecc00513200003a0d00000a00000047410000ba
:100edc00545400005f480000494400005f43000088
:100eec00434300005f520000455100003a0d0000e2
:100efc000a00000047410000545400005f4100000c
:100f0c004343000045530000535f0000434800007a
:100f1c0041520000315f000052450000513a000080
:100f2c000d0a00000047000041540000545f00000f
:100f3c004143000043450000535300005f43000051
:100f4c0048410000523200005f5200004551000041
:100f5c003a0d00000a000000474100005454000004
:100f6c005f44000045560000494300004545000021
:100f7c005f43000048410000523100005f52000006
:100f8c00455100003a0d00000a00000047410000e6
:100f9c00545400005f4400004556000049430000d3
:100fac00454500005f4300004841000052320000fc
:100fbc005f520000455100003a0d00000a0000008d
:100fcc0047410000545400005f42000041540000af
:100fdc0054450000525900005f4300004841000096
:100fec00523100005f520000455100003a0d0000e4
:100ffc000a00000047410000545400005f4200000a
:10100c004154000054450000525900005f43000059
:10101c0048410000523200005f5200004551000070
:10102c003a0d00000a000000474100005454000033
:10103c005f4100004343000045530000535f000034
:10104c004e4100004d4500005f520000455100002c
:10105c003a0d00000a000000474100005454000003
:10106c005f4100004343000045530000535f000004
:10107c00494300004f4e00005f52000045510000f4
:10108c003a0d00000a0000004741000054540000d3
:10109c005f5000004e5000005f52000045510000b0
:1010ac003a0d00000a0000004741000054540000b3
:1010bc005f420000415400005445000052590000aa
:1010cc005f44000045530000435f000052450000a0
:1010dc00513a00000d0a0000004700004154000086
:1010ec00545f00004241000054540000455200007f
:1010fc00595f00004e4f0000575f00005245000042
:10110c00513a00000d0a0000004700004154000055
:10111c00545f00004241000054540000455200004e
:10112c00595f000043430000435f0000524500003c
:10113c00513a00000d0a000000480000494400002c
:10114c005f52000045410000445f00004441000034
:10115c00544100003a0d00000a00000057720000d4
:10116c006974000065200000436c0000617300008e
:10117c007320000045720000726f000072200000a6
:10118c00210d00000a000000446500007669000093
:10119c0063650000205200006561000064200000bf
:1011ac0045720000726f000072200000210d0000db
:1011bc000a000000577200006974000065200000ee
:1011cc00416300006c20000045720000726f00004b
:1011dc0072200000210d00000a0000005265000082
:1011ec006164000020410000636c00002045000099
:1011fc00727200006f720000202100000d0a0000c6
:10120c0000470000656e0000657200006963000015
:10121c0020640000656d00006f2000006465000014
:10122c0076690000636500002061000074740000a2
:10123c006163000068650000642000002d20000040
:10124c0065760000656e0000742c000020640000c0
:10125c00657600006963000065410000646400006d
:10126c0072650000737300003d00000047650000cc
:10127c006e65000072690000632000006465000068
:10128c006d6f00002064000065760000696300004b
:10129c006520000064650000746100006368000054
:1012ac0065640000202d00002065000076650000bc
:1012bc006e7400000d0a0000000d00000a2a0000e8
:1012cc002a2a00002a2a0000205500005342000060
:1012dc0020450000727200006f720000202d00008b
:1012ec00206800007562000073200000617200002d
:1012fc00652000006e6f0000742000007375000004
:10130c00707000006f7200007465000064200000b3
:10131c002a2a00002a2a00002a0d00000a000000d8
:10132c000d0a00002a2a00002a2a00002a200000a8
:10133c00555300004220000045720000726f0000ff
:10134c00722000002d20000064650000766900000a
:10135c006365000020690000732000006e6f0000c0
:10136c007420000073750000707000006f72000034
:10137c0074650000642000002a2a00002a2a00005c
:10138c002a0d00000a0000000d0a00002a2a0000a5
:10139c002a2a00002a200000555300004220000099
:1013ac0045720000726f0000722000002d200000ba
:1013bc00636100006e6e00006f7400002065000019
:1013cc006e7500006d6500007261000074650000b0
:1013dc002064000065760000696300006520000051
:1013ec002a2a00002a2a00002a0d00000a00000008
:1013fc000d0a00002a2a00002a2a00002a200000d8
:10140c00555300004220000045720000726f00002e
:10141c00722000002d200000636c00006965000044
:10142c006e74000020640000726900007665000094
:10143c0072200000696e0000697400006961000090
:10144c006c6900007a610000746900006f6e000026
:10145c0020650000727200006f720000202a0000ec
:10146c002a2a00002a2a00000d0a0000000d0000a4
:10147c000a2a00002a2a00002a2a0000205500000f
:10148c005342000020450000727200006f72000091
:10149c00202d0000206f000075740000206f0000ec
:1014ac00662000006865000061700000206d00007f
:1014bc00656d00006f720000792000002a2a000080
:1014cc002a2a00002a0d00000a0000000d0a000064
:1014dc002a2a00002a2a00002a2000005553000066
:1014ec004220000045720000726f00007220000064
:1014fc002d200000756e0000737000006563000005
:10150c006966000069650000642000002a2a00005a
:10151c002a2a00002a0d00000a0000000d0a000013
:10152c000d0a0000436f0000756c00006420000081
:10153c006e6f000074200000696e0000697400007a
:10154c00696100006c6900007a650000205500009c
:10155c00534200002043000075730000746f0000bc
:10156c006d200000446500006d6f000020410000fc
:10157c0070700000202d00002073000079730000b3
:10158c00746500006d2e00002020000048610000f2
:10159c006c740000696e0000672e00000d0a0000dc
:1015ac000d0a0000000d00000a0d00000a2a0000c0
:1015bc002a2a00002a2a000020550000534200006d
:1015cc002043000075730000746f00006d20000054
:1015dc00446500006d6f0000204100007070000039
:1015ec00204900006e69000074690000616c000005
:1015fc00697a000065640000202a00002a2a000095
:10160c002a2a00000d0a00000d0a0000000d00003f
:10161c000a0d00000a4300006f7500006c640000a6
:10162c00206e00006f740000206900006e690000dd
:10163c0074690000616c0000697a0000652000008c
:10164c0055530000422000004375000073740000e5
:10165c006f6d000020440000656d00006f200000dd
:10166c0041700000702000002d2000005553000038
:10167c00422e000020200000486100006c74000025
:10168c00696e0000672e00000d0a00000d0a0000b4
:10169c00000000003031000032330000343500000f
:1016ac003637000038390000414200004344000046
:0416bc00454600009f
:020000040000fa
:1016c0000600fa00204798003147980091a22000b8
:1016d000914078002e40900080cf500003003200ef
:1016e0006000200020079800140037003e40900062
:1016f000ad0a0700000f78001e00e0000d00320068
:101700001e017800a2409000f0cdb30000c0600040
:10171000204198001e017800a2409000f0cbb30059
:1017200000c06000204198000000eb0020079800f6
:101730000200370040012000200798002e00900092
:101740000080fa00000006000200fa00004f780056
:1017500034cabf000080fb004600de00614060002c
:101760000080fb000080fa00000006000400fa0080
:10177000004f7800f050800001f020000100600070
:101780000000e00003003a0010032000100798005a
:101790001d003700f150800000f0200080806000c4
:1017a00000402000808f50000b003a00f050800075
:1017b000010f200001006000f00f500003003a000c
:1017c000a0032000100798000f003700000320003e
:1017d000100798000c003700f150800000f0200046
:1017e0008080600000502000808f500004003a008c
:1017f0002acabf000080fb001007980002003700d3
:1018000020032000100798001e0090000080fa00be
:10181000000006000600fa00008fbe009051800014
:101820000000e0000d003a002002200067fb0700e6
:1018300090518800905180000000e00003003a00c1
:101840000000eb002007980018003700915180003d
:101850000000eb008008780001003700e711070066
:1018600090518000e05088000000eb00f0508800ac
:101870000080eb00705388000040eb0028eab700be
:101880000040eb0029eab7006c0aa80040002000e5
:10189000b051880040002000c05188000000eb00db
:1018a000d051880010002000200798002e009000e2
:1018b0000080fa00000006000a00fa00881f780085
:1018c000100798004147980032079800ce409000da
:1018d0001e0090006d0007000040eb0010479800cc
:1018e000380037001e4090000080fb001e01900071
:1018f0006600b90066004000600079000000e0006a
:101900002d003a001e4090000084fb003e00900035
:101910002efb0700000178009e0190006640b90090
:101920006600400002b079001e4090000080fb007d
:101930001e0190006600b90066004000600079005a
:101940000000e0001c003a000040eb00004f78006f
:10195000130037001e80fb001e0190006600b900d6
:101960006600400060007900aafb07001e80fb00b3
:101970001e0190006600b900e60040000000eb0088
:10198000803079001e80fb001e0190006600b900c7
:10199000e60040000000eb00803079001e4fe800b8
:1019a0001e4090009e4f1000eaff39000000eb003f
:1019b00040079800090037001e4090000040e800f2
:1019c000104798009e4090004e40900080cf5000fd
:1019d000c4ff390010002000400798004e0090001e
:1019e0004f0478000080fa00000006000600fa00ac
:1019f0001007980041479800ce4090001e009000cc
:101a0000220007000040eb00004f78001a0037006a
:101a10001e80fb001e0190006600b90066004000b9
:101a2000600079000000e000120032001e80fb0020
:101a30001e0190006600b900660040006000790059
:101a400074fb07001e80fb001e0190006600b900b9
:101a5000e60040000000eb00803079001e80fb00b3
:101a60001e0190006600b900e60040000000eb0097
:101a7000803079001e4fe8004e4090009e4f1000cd
:101a8000e3ff39000080fa00000006000600fa00bb
:101a900010079800414798000040eb00004f780085
:101aa0000e0037001e80fb001e0190006600b9008a
:101ab000e80040000000eb00803079001e80fb0051
:101ac0001e0190006600b9006a00400082004000dc
:101ad000e0ff2f00910860001e4fe8004e4090008c
:101ae0009e4f1000efff39001e009000ce40900086
:101af000014878009e0090000040eb00a040980054
:101b00009e0090000040eb00904098009e009000e6
:101b10000000eb00a00098000080fa000000060022
:101b20001600fa006047980071479800024f98002d
:101b3000530798006407980075079800060f9800ef
:101b40002757980091a22000914078006e409000a5
:101b500080cf50000300320060002000200f98006a
:101b60009a003700f150800000f020008080600073
:101b700000402000808f5000030032001100200040
:101b8000210f980091003700905180003040900064
:101b9000624060000004e00003003a000001200001
:101ba000200f9800890037000e489000eb4f50003e
:101bb00042003a008151800011079800030037006d
:101bc0001e00900090007800110798001e00900001
:101bd0000000e000060032001e009000604090000f
:101be0008080fb006e009000808f5000f4ff3a0070
:101bf0001e0090000000e000040032001e00900073
:101c0000200090000000e00003003a0030002000b7
:101c1000200f98006d0037001e00900020009000fb
:101c2000a0009000210798000b0037002e009000c4
:101c300030409000624060000004e00003003a0081
:101c400030002000200f9800600037002e00900028
:101c500090007800210798002e0090000000e0001e
:101c6000f2ff3a001e00900090009000010f7800f3
:101c7000020037001e007800100f78001e00e00000
:101c8000060032001e007800204090008080fb009b
:101c90005e009000808f5000f6ff3a001e00e000ca
:101ca00003003a0030002000200f98004700370062
:101cb0001e0090009e007800210098000e489000c1
:101cc000e14f50000a003a005e0090000000e00082
:101cd00007003a007e4090000080fb00600040005a
:101ce000e20f500002003e006e0090004b1407000f
:101cf00080508000fe4090000148780080508000b5
:101d00000000e8008e489000014878008050800074
:101d10008080e8005e00900080487800805080005d
:101d2000e30040005e0090004800de00804878003c
:101d300080508000e40040006e00900080487800f1
:101d400080508000e50040006e0090004800de00fa
:101d50008048780080508000e60040007e009000bf
:101d60008048780080508000e70040007e009000ae
:101d70004800de0080487800905180008ef897007f
:101d8000115898002e5090000004e00007003a001f
:101d900081508000905180007e0290008e0990005a
:101da00082002000fc1007000600370081508000f0
:101db000905180007e0290008e09900082002000e9
:101dc000b31007000000eb00200f98002e089000d1
:101dd0000080fa00000006000c00fa00204798007e
:101de000314798002207980034079800450798006b
:101df00091a22000914078002e40900080cf5000aa
:101e00000300320060002000500798003f003700b8
:101e1000f150800000f02000808060000040200031
:101e2000808f5000030032001000200050079800ff
:101e3000360037003e409000db080700000f7800b6
:101e40001e00e0002f0032001e007800d008900035
:101e500000302000008060000000e00003003a0035
:101e60008001200050079800280037001e007800ed
:101e7000205890000004e0000300350050012000cd
:101e800050079800210037001e0078002040900085
:101e90000042b2000004e000030032001001200004
:101ea00050079800190037001e007800204090006d
:101eb0000044b2000004e0000300320020012000d2
:101ec00050079800110037001e0078003040900045
:101ed000624060000004e00003003a0000012000be
:101ee00050079800090037003e019000ae009000b6
:101ef0001e007800f11007000000eb00500798006a
:101f00000200370040012000500798005e0090005a
:101f10000080fa00000006000400fa00004f78007c
:101f200029cabf009e4f500003003200600020000d
:101f3000100798000c003700f050800001f02000de
:101f4000010060000000e00003003a0030002000c3
:101f500010079800040037000000eb00f0508800e4
:101f60000000eb00100798001e0090000080fa00af
:101f7000000006000400fa00004f780029cabf00e4
:101f80009e4f5000030032006000200010079800b0
:101f90000c003700f150800000412000808f50007d
:101fa00003003200300020001007980005003700c1
:101fb000f05080000000e800f05088000000eb00c6
:101fc000100798001e0090000080fa000000060034
:101fd0000400fa00004f78001147980029cabf009a
:101fe0009e4f500003003200600020001007980050
:101ff00018003700f150800000f020008080600061
:1020000000402000808f50000300320010002000ac
:10201000100798000f0037009e1407000000e00032
:10202000030032002000200010079800090037004c
:102030001e40900026eab7009051800080c0eb005f
:102040001158980000332000f05088000000eb0089
:10205000100798001e0090000080fa0000000600a3
:102060000a00fa002047980031479800220798009c
:102070003307980091a22000914078002e409000f4
:1020800080cf50000300320060002000400798001d
:10209000190037003e40900043080700000f780009
:1020a0001e00e000120032002e009000614060002f
:1020b00061406000614060001e0178006140600086
:1020c000c501dd00b2409000f0cdb30000c060005b
:1020d00003407000304198001e007800be00900060
:1020e000011098000000eb00400798000200370044
:1020f00041012000410798004e0090000080fa0046
:10210000000006000200fa000000eb0040248800f6
:1021100029cabf000004e0000d0032000040eb00bf
:10212000004f780029cabf002400200005002000cd
:102130000e017800a1062000c522070029cabf00b1
:102140001300200092a2200011072000f1100700c8
:102150006000b800affd07000080fa000000060034
:102160000400fa00004f780029cabf009e4f5000bb
:102170000300320060002000100798000c003700b8
:10218000f150800000402000808f5000030032009a
:102190003000200010079800050037009404a900c3
:1021a00000412000f05088000000eb00100798006c
:1021b0001e0090000080fa00000006003000fa00c7
:1021c000881f780039003700c0518000e20f5000ae
:1021d00007003c00c05180006c00b900800078000e
:1021e00080a4200080804000711798000200370012
:1021f000c0a3200070179800fe10900011079800ef
:102200001e00900010007800601798002007200042
:10221000ee109000808f500005003200f0ff270084
:10222000ee109000808f5000010032000700370050
:102230001e0090000081e8001e00900090007800d1
:1022400029cabf00a3002000b2100700602480004c
:10225000000f78000000eb0060248800d05180005f
:102260000000e900d0518800c0518000e20f50000a
:1022700004003c00c05180000000e800c05188000c
:10228000020037000000eb00c0518800c051800000
:102290006c00b90080007800c0a3200000804000de
:1022a000100798009e00780061248800d0518000bb
:1022b0000000e000c4ff3a0070538000e10f4000ce
:1022c0000400320070538000f05088000080eb0062
:1022d00070538800f050800001f020000100600081
:1022e0005017980000202000de109000808f5000d2
:1022f0005e02320000202000de109000808f50002f
:1023000008003e005e1090000000e0001200320065
:1023100000102000de109000808f5000b4003200ca
:10232000be05370000402000de109000808f500076
:102330002d05320000502000de109000808f5000ec
:102340006605320000302000de109000808f5000c3
:10235000a4023200b1053700f1508000000f2000c8
:1023600080806000411798004e109000f00f5000e0
:102370006a00320000022000ce109000808f5000d2
:10238000700032004e1090000000e00001003200aa
:10239000a20537005bff0700915180000000eb00b1
:1023a00080087800915180000000eb0090009800b8
:1023b00091518000314090000024a000b04098006e
:1023c00091518000314090000014a000b04098006e
:1023d00092518000b240900000c2b30000c0700073
:1023e0003041980091518000800c200080109800ae
:1023f0009151800000042000c0009800925180009c
:102400006000b800000998001109980091518000ff
:102410000040eb00a0589800915180000040eb0074
:102420008058980092518000d2089000f0cf2f0081
:1024300000806000500998009151800000c0eb00be
:102440009058980030c0b30018eab7000040eb0085
:1024500026eab7000040eb0027eab7000040eb0097
:1024600028eab7000000eb00a05188000000eb0054
:10247000805188000000eb00005188000000eb0054
:1024800060248800f00f2000502488001124800070
:10249000c00820000080600010248800d0072000c1
:1024a000002488000000eb0080248800f00f20004a
:1024b0007024880000a020004800de00c0248800ae
:1024c00080002000a0248800a0002000a024880014
:1024d00080002000a0248800000320003024880011
:1024e00020002000302588000000eb0040258800f7
:1024f0000000eb00b0248800aae4a900a00420009a
:1025000000258800f150800000ff2000008060005e
:1025100070004000f0508800400537006ccabf00d2
:10252000614060000004e0003c053200f150800092
:1025300000ff20000080600070004000f050880024
:1025400036053700ea0047000040eb00804878007d
:10255000ea00470020c3b300904098006a0147009a
:1025600024002000050020009106200000c0eb00a0
:10257000b72107000000e000190032001000200021
:102580004024880071048000f0fb2f000080600070
:102590007004880071068000f00f2f00008060003a
:1025a00070068800710680000060200000807000c6
:1025b00070068800f1048000000420000080700094
:1025c000f0048800f150800000ff200000806000cf
:1025d00070004000f05088008cc4a8000f05370040
:1025e0006c0aa90000012000f05088000b0537009c
:1025f000f0508000010f20000100600030179800ab
:1026000000022000be109000808f5000b000320009
:1026100000022000be109000808f500007003e0096
:102620003e1090000000e0000d003200be1090004f
:10263000f08f500029003200f8043700000320001a
:10264000be109000808f500028013200000420004e
:10265000be109000808f50007d013200ef043700e3
:10266000f05080006f006000201798002e1090003e
:10267000e10f5000e9043200ae109000e18f5000ed
:10268000040039002e109000e20f50000d003200bf
:10269000e204370010002000502488008c04a800b9
:1026a000b00f2000d05088000004200000248800d3
:1026b00082c4a800f05080000000e800f0508800bc
:1026c000d6043700f150800000ff20000080600039
:1026d00070004000f0508800d0043700f0508000b7
:1026e0006f006000101798009e109000e28f50005d
:1026f000620032001e109000e20f500004003e0005
:102700009e1090000100e00008003200c304370072
:102710001e109000e30f5000c00432009e10900085
:10272000e48f500060003200bc043700805080000d
:102730000000e000040032008050800035f80700ff
:102740000000eb0080508800800020009ff7070009
:1027500080508800805080000000e00005003a00b2
:1027600030c3b3002aeab70000502000f0508800c0
:10277000aa0437000040eb0026eab7000040eb0057
:1027800027eab7000000eb00a051880030c0b3007a
:1027900017eab700d0002000502588000000eb00a9
:1027a000602588000000eb00702588000000eb0029
:1027b000802588000000eb00902588000000eb00d9
:1027c000a02588000000eb00b02588000000eb0089
:1027d000c02588000000eb00d02588000000eb0039
:1027e000e02588000000eb00f02588000000eb00e9
:1027f000002688000000eb00102688000000eb0097
:10280000202688000000eb00302688000000eb0046
:1028100040268800414920009140780000c8b3005c
:1028200000c060000004e00006003a00340aa8007e
:1028300000c8b30028eab70000082000b0248800d0
:10284000aae4a8009424a8009424a900348aa9002a
:1028500034aaa9009484a80030032000d050880036
:10286000000420000024880082c4a800f0508000ea
:102870000000e800f0508800680437009484a90044
:102880009404a800b0002000d0508800000420006c
:102890000024880082c4a800f05080000000e800f6
:1028a000f05088005d043700f000200060248800ac
:1028b000f00f200080248800f150800000ff2000ed
:1028c0000080600070004000f05088005304370022
:1028d000f05080006f006000001798000e1090000c
:1028e000e10f5000390032008e109000e18f50004f
:1028f000040039000e109000e20f50004d0032002d
:1029000046043700e04f80000000e0000400320081
:10291000e04f8000bff707000000eb00e04f8800a9
:102920008150800000c8b30080487800805080004b
:102930008000e80060c0b3008048780080508000cc
:102940008080e8000040eb008048780080508000e4
:10295000e300400010c0b300804878008050800041
:10296000e40040000040eb00804878008050800088
:10297000e50040000040eb00804878008050800077
:10298000e600400080c0b30080487800805080009e
:10299000e70040000040eb00804878008050800055
:1029a00081508000955180008400200080017800d3
:1029b0008200200005007800b50d0700f05080006f
:1029c0000000e800f05088001404370090518000a7
:1029d00030409000624060000004e0000f043200cc
:1029e0009051800030409000614060000004e000a1
:1029f0000e003200805080006400400010407800db
:102a0000e94f500005003a0050c3b3002aeab7006e
:102a100000502000f050880000043700f050800083
:102a20000000e800f0508800fc033700d2040700e3
:102a3000fa03370080508000104078000080fb00cf
:102a4000e2f60700e04f8800e04f80000000e00061
:102a500005003a0030c3b3002aeab7000050200056
:102a6000f0508800ed033700e14f80008050800077
:102a7000104078008048780091518000805080009c
:102a8000704090000080fb00c000980080508000e3
:102a900060f707000000eb00805088009051800034
:102aa00040009000c9f607008050880080508000e8
:102ab0000000e00005003a0030c3b3002aeab70086
:102ac00000502000f0508800d403370030c0b3001d
:102ad00017eab700f150800000ff2000008060007e
:102ae00070004000f0508800cc033700f0508000a8
:102af0006f006000700f9800fe089000e18f50009a
:102b00003b0032007e089000e10f500004003900c5
:102b1000fe089000e28f500045003200bf033700ee
:102b200020cabf00704060000004e000bb033a0010
:102b30008150800000c8b300804878008050800039
:102b40008000e80060c0b3008048780080508000ba
:102b50008080e8000040eb008048780080508000d2
:102b6000e300400010c0b30080487800805080002f
:102b7000e40040000040eb00804878008050800076
:102b8000e50040000040eb00804878008050800065
:102b9000e6004000e04f8000104078008048780058
:102ba00080508000e70040000040eb008048780043
:102bb000e04f8000104078000080fb00e14f800073
:102bc00085508000965180000002780081017800d5
:102bd0008200200085007800060078002c0d070098
:102be000f05080000000e800f05088008b033700b0
:102bf0009051800030409000624060000004e0008e
:102c000086033200905180003040900061406000a7
:102c10000004e00004003200f05080000000e800f2
:102c2000f05088007d033700530407007b03370012
:102c300030c0b30017eab700f150800000ff200059
:102c40000080600070004000f0508800730337007f
:102c5000cf040700f150800000f0200000806000e9
:102c60000010b000f05088006c033700f050800076
:102c7000010f2000010060000000e00001003200b0
:102c800066033700f05080006f006000600f98000e
:102c90006e089000e10f500032003200ee08900004
:102ca000e18f5000040039006e089000e20f5000e0
:102cb0003c0032005903370010c0b30029eab700c6
:102cc000815080000040eb008048780080508000f8
:102cd0008000e80050c0b300804878008050800039
:102ce0008080e80029cabf008048780080508000ba
:102cf000e30040000040eb008048780080508000f6
:102d0000e40040000040eb008048780080508000e4
:102d1000e50040000040eb008048780080508000d3
:102d2000e60040000040eb008048780080508000c2
:102d3000e70040000040eb008048780081508000b0
:102d4000905180000002eb008001eb008200200027
:102d5000110d0700f05080000000e800f0508800de
:102d60002e03370090518000304090006240600098
:102d70000004e000290332009051800030409000b0
:102d8000614060000004e00004003200f050800068
:102d90000000e800f050880020033700f603070029
:102da0001e03370034cabf00614060000080fb0092
:102db0004700dd008040780029cabf0000c07000d5
:102dc00028eab70030c0b30017eab700f15080001e
:102dd00000f02000008060000010b000f05088007b
:102de0000e033700f0508000010f2000010060004a
:102df000500f980000022000de089000808f5000e5
:102e0000c800320000022000de089000808f5000d1
:102e100007003e005e0890000000e0000d00320058
:102e2000de089000f08f500026003200fb023700d1
:102e300000032000de089000808f50002501320042
:102e400000042000de089000808f5000d001320086
:102e5000f2023700e04f80001050900016eab700f1
:102e60000f0037007051800010009000300798006c
:102e7000705180001000780066f6070071518000e4
:102e80000000eb00800878007051800061f60700b8
:102e90000000eb00705188003e00900070518800e7
:102ea000705180000000e000eeff3a00f150800019
:102eb00000ff20000080600070004000f05088009b
:102ec000d6023700f05080006f006000400f98007d
:102ed0004e089000e10f500033003200ce08900001
:102ee000e18f5000040039004e089000e20f5000be
:102ef0003d003200c90237008150800000c8b30095
:102f000080487800805080008000e80060c0b300f6
:102f100080487800805080008080e80016cabf009a
:102f20000040e9008048780080508000e3004000c5
:102f300020c0b3008048780080508000e40040004a
:102f40000040eb008048780080508000e5004000a1
:102f50000040eb008048780080508000e600400090
:102f600080c0b3008048780080508000e7004000b7
:102f70000040eb0080487800805080008150800045
:102f8000955180008400200080017800820020009c
:102f9000050078003e0c0700f05080000000e800bb
:102fa000f05088009d023700905180003040900022
:102fb000624060000004e0009802320090518000fe
:102fc00030409000614060000004e00004003200e6
:102fd000f05080000000e800f05088008f023700b9
:102fe000650307008d0237006000200077f50700b9
:102ff000300798003e0090000000e00005003a0015
:1030000030c3b3002aeab70000502000f050880017
:10301000820237003e049000805080006300400030
:10302000104078000080fb00c800dd008050800068
:103030000080e800104078000080fb000080400025
:1030400062f50700000c7800180078000000e0002e
:1030500009003a003e009000eef507000000eb008a
:103060003007980030c3b3002aeab70000502000b0
:10307000f0508800690237003e0090001000780090
:10308000000178008050800063004000104078000c
:103090000080fb00c800dd00805080000080e80058
:1030a000104078000080fb0080814000f00f20007d
:1030b000808061002240900060406000014070000c
:1030c00020419800c818de00324090006040600047
:1030d0000140700030419800be00900070518000a7
:1030e000900098003e009000705188003e009000d3
:1030f00010007800d04f8800be00900016cabf00b4
:10310000c040980030c0b30017eab700f15080000b
:1031100000ff20000080600070004000f050880038
:103120003e023700f05080006f006000300f9800c2
:10313000be089000e18f5000450032003e0890002c
:10314000e10f500004003900be089000e28f5000eb
:103150004f003200310237008150800000c8b300b8
:1031600080487800805080008000e80060c0b30094
:1031700080487800805080008080e80016cabf0038
:103180000040e9008048780080508000e300400063
:1031900020c0b3008048780080508000e4004000e8
:1031a0000040eb008048780080508000e50040003f
:1031b0000040eb008048780080508000e60040002e
:1031c00070518000100078000080e8001040780006
:1031d0008048780080508000e700400070518000f7
:1031e00010007800630040001040780080487800ac
:1031f000705180001000780080007800214090001d
:103200000081fb00314090000080fb004800dd00a1
:10321000020070008000780070518000100078007b
:10322000855080009651800001027800800178006e
:10323000820020008500780006007800940b0700cb
:10324000f05080000000e800f0508800f3013700e3
:103250009051800030409000624060000004e00027
:10326000ee013200905180003040900061406000db
:103270000004e00004003200f05080000000e8008c
:10328000f0508800e5013700bb020700e30137007a
:1032900030c0b30017eab70016cabf000040e9000b
:1032a00016eab70016cabf000004e00003003200af
:1032b00000312000f0508800d8013700f150800024
:1032c00000ff20000080600070004000f050880087
:1032d000d2013700f05080006f006000200f98008e
:1032e0002e089000e10f50004a003200ae08900016
:1032f000e18f5000070039002e089000e20f5000c7
:1033000081003200ae089000e38f50008e00320042
:10331000c2013700ff0a070026cabf000004e00010
:1033200011003a0070518000a05088000a00370058
:10333000a050800010007800d04f8800ce0c07000d
:103340000000e0001f003a00f20a0700a0508000d1
:1033500010009000a0508800a05080000000e00005
:10336000f3ff3a001700370070518000a05088002a
:1033700003003700a050800010009000a05088008b
:10338000a05080000000e00005003200a050800046
:10339000c040900026cabf0080cf5000f5ff3a0021
:1033a000a050800010007800d04f8800b20c0700b9
:1033b0000000e00003003a00d60a07000000eb001e
:1033c000a050880034cabf00644060000004e000e0
:1033d0000c003200a05080000000e00005003a0020
:1033e00040c3b3002aeab70000502000f050880024
:1033f0008a013700f05080000000e800f05088009b
:1034000086013700f05080000000e800f05088008e
:103410008201370034cabf00644060000004e0004d
:1034200033003a00344aa800815080000040eb008d
:1034300080487800805080008000e80030c0b300f1
:103440008048780034cabf00684060000004e00093
:1034500005003200805080008080e80030c0b3005a
:103460008048780004003700805080008080e800a9
:1034700040c0b3008048780080508000e3004000e6
:103480000040eb008048780080508000e40040005d
:103490000040eb008048780080508000e50040004c
:1034a0000040eb008048780080508000e60040003b
:1034b0000040eb008048780080508000e70040002a
:1034c0000040eb00804878008150800090518000df
:1034d0000002eb008001eb00820020002e0b0700b1
:1034e000f05080000000e800f05088004b013700e9
:1034f000f150800000ff200000806000700040005c
:10350000f050880045013700905180003040900015
:10351000624060000004e0004001320090518000f1
:1035200030409000614060000004e0000400320080
:10353000f05080000000e800f050880037013700ac
:103540000d0207003501370030c0b30017eab7009d
:10355000a05080000000e00005003a0040c3b30026
:103560002aeab70000502000f05088002b013700f5
:1035700030c0b30017eab700f150800000ff200010
:103580000080600070004000f05088002301370088
:10359000f05080006f006000100f98001e0890002f
:1035a000e10f5000330032009e089000e18f500080
:1035b000070039001e089000e20f50003d00320065
:1035c0009e089000e38f5000400032001301370046
:1035d000815080000040eb008048780080508000df
:1035e0008000e80090c0b3008048780080508000e0
:1035f0008080e80026cabf008048780080508000a4
:10360000e30040000040eb008048780080508000dc
:10361000e40040000040eb008048780080508000cb
:10362000e50040000040eb008048780080508000ba
:10363000e60040000040eb008048780080508000a9
:10364000e70040000040eb00804878008150800097
:10365000905180000002eb008001eb00820020000e
:10366000cd0a0700f05080000000e800f05088000c
:10367000ea003700905180003040900062406000c6
:103680000004e000e50032009051800030409000de
:10369000614060000004e00004003200f05080004f
:1036a0000000e800f0508800dc003700b20107009d
:1036b000da00370030c0b30017eab700f0508000de
:1036c0000000e800f0508800d4003700f15080007e
:1036d00000f02000008060000010b000f050880072
:1036e00034cabf000044b2000004e0001a003200f7
:1036f0002bcabf00404798004e4090000080fb005e
:103700006a00b90080007800c09d20000080400061
:10371000100278004e4090000080fb006a00b90063
:10372000e6004000c09d2000008040001001be0067
:1037300029cabf00ce409000040001000000e00054
:10374000b6003a0090c3b3002aeab7000050200048
:10375000f0508800b1003700815180004107980087
:103760001d0037004e009000f04090004147980047
:103770004e4090000080fb006a00b9008000780095
:10378000c09d200000804000100278004e40900054
:103790000080fb006a00b900e6004000c09d2000e8
:1037a000008040001001be0029cabf00ce4090003a
:1037b000040001000000e00004003a0090c3b300e0
:1037c0002aeab70000502000f05088004e00900018
:1037d00090007800410798004e0090000000e00043
:1037e000e0ff3a008d003700f1508000000f20000c
:1037f00080806000010f98000e0890000000e0003b
:10380000860032008e089000f08f500001003200d8
:1038100082003700f05080006f0060007007980051
:103820007e009000e20f50007c003200fe0090000d
:10383000e28f500007003e007e0090000000e00094
:1038400076003200fe009000e18f50000b00320045
:10385000720037007e009000e40f50006f003200cd
:10386000fe009000e48f50000e0039007e009000b2
:10387000e50f500016003200680037009444a8009d
:1038800050012000d050880000042000002488004f
:1038900082c4a800f05080000000e800f0508800ca
:1038a0005e0037009444a9009404a800b0002000f2
:1038b000d0508800000420000024880082c4a800a2
:1038c000f05080000000e800f050880053003700fe
:1038d00000402000f050880050003700f050800079
:1038e000010f2000010060000000e0000100320034
:1038f0004a00370080002000a02488000000eb0070
:1039000060248800f00f20005024880011248000db
:10391000c00820000080600010248800d00720002c
:10392000002488000000eb0080248800f00f2000b5
:10393000702488008c04a8002acabf000080fb0005
:103940006007980040032000ee009000808f500038
:103950001800320040032000ee009000808f5000dd
:1039600008003c006e009000e70f50001400320089
:1039700030032000ee009000808f500016003200cf
:103980001800370050032000ee009000808f500098
:103990000500320090032000ee009000808f500060
:1039a0000a0032000f00370050c6b30040479800ad
:1039b0000e003700c0c6b300404798000b00370028
:1039c000d0c6b3004047980008003700e0c6b300f7
:1039d0004047980005003700f0c6b3004047980004
:1039e0000200370000c7b300404798004e409000e7
:1039f0008080fb0029cabf001400200005002000c1
:103a0000c2a22000921c0700f150800000ff20009d
:103a10000080600070004000f05088004f04780083
:103a20000080fa00000006000400fa002047980019
:103a30003147980091a22000914078002e409000dc
:103a400080cf50000e003a003e409000d6010700a3
:103a5000000f78001e00e000090032001e0178000f
:103a6000a240900000c8b30000c070002041980040
:103a70009e007800314090000014a000b0409800f3
:103a80000080fa00000006000c00fa004047980091
:103a900051479800320798004307980091a22000f0
:103aa000914078004e40900080cf500009003200d5
:103ab000be00900060c0b300804878004e019000c6
:103ac0006000b8000089be00100020005007980078
:103ad000380037005e409000b301070010079800df
:103ae0001e0090000000e0002d0032001e0090003b
:103af000304090000080fb000000d1006140600079
:103b0000004f78001e00900030409000614060003f
:103b10000004e00009003200be0090000040eb000d
:103b2000804878001e0090009008900000089000e7
:103b30004e0190000089be00160037001e00900064
:103b4000204090000042b2000004e0000400320077
:103b5000be00900010c1b300804878000d0037000f
:103b60001e009000204090000044b2000004e000dd
:103b7000050032001e009000c05890003e009000ea
:103b80000148780003003700be00900090c1b300e8
:103b9000804878001e80fb00500798000500370021
:103ba000be00900040c1b3008048780010002000a3
:103bb000500798005e0090000080fa0000000600a8
:103bc0000600fa00000f780021479800324798005d
:103bd0002e409000e14f400012003a003e4090001d
:103be0000004e0000f003a00800620009e0f100045
:103bf00005003a0043f907006c0aa9000000eb0039
:103c00002007980009003700b00620009e0f100022
:103c100004003a006c0aa8000000eb00200798009e
:103c20000200370030002000200798002e0090008e
:103c30000080fa00000006000c00fa0020479800ff
:103c400031479800220798003407980045079800ec
:103c500091a22000914078002e40900080cf50002b
:103c60000300320060002000500798003f0037003a
:103c7000f150800000f020008080600000402000b3
:103c8000808f500003003200100020005007980081
:103c9000360037003e40900043010700000f7800d7
:103ca0001e00e0002f0032001e007800d0089000b7
:103cb00000302000008060000000e00003003a00b7
:103cc0008001200050079800280037001e0078006f
:103cd000205890000004e00003003d005001200047
:103ce00050079800210037001e0078002040900007
:103cf0000042b2000004e000030032001001200086
:103d000050079800190037001e00780020409000ee
:103d10000044b2000004e000030032002001200053
:103d200050079800110037001e00780030409000c6
:103d3000624060000004e00003003a00000120003f
:103d400050079800090037003e019000ae00900037
:103d50001e007800a40907000000eb00500798003f
:103d60000200370040012000500798005e009000dc
:103d70000080fa00000006000000fa00e250800017
:103d8000a2409000f0cbb30000c06000204198003a
:103d9000e2508000a2409000f0cdb30000c060006f
:103da0002041980017cabf000040e90017eab70099
:103db00017cabf000004e00005003200f050800088
:103dc00001ff2f0001006000f05088000d00370057
:103dd00018cabf000040e90018eab70018cabf00bf
:103de0000004e0000300320000112000f0508800c1
:103df0000400370070c0b3002aeab700005020006a
:103e0000f05088000080fa00000006001400fa005c
:103e1000404f9800514f9800624f9800030f980050
:103e2000e04f8000000f78000000eb0010079800c2
:103e30004f0037001e0090004300dd00e600400008
:103e4000609e200000804000100078000000d1003b
:103e500061406000e14f500042003a001e009000b7
:103e6000c300dd00609e200000804000904078008c
:103e70004e48900080cf50003a003a001e0090005b
:103e8000c300dd00609e2000008040009040900054
:103e90005e48900080cf500032003a001e00900033
:103ea0004300dd008080e800609e2000008040002c
:103eb000904078006e48900080cf500029003a0072
:103ec0009e007800014890000081fb00114890009e
:103ed0000080fb004800dd00020070002007980011
:103ee0009e007800214890000081fb00314890003e
:103ef0000080fb004800dd000200700030079800e1
:103f00004e489000004f98005e489000104f980077
:103f10006e489000204f9800640147008400200004
:103f2000050020009107200000c0eb00481b07009f
:103f30000000e0000b003a001e0090004300dd008e
:103f4000e4004000609e200000804000904090000f
:103f50000e0890000148780010002000100f980013
:103f6000080037001e0090000000e80010079800cd
:103f70001e0090000000e000aeff34000000eb00e7
:103f8000100f98001e0890000080fa000000060044
:103f90000600fa00e04f8000000f78000000eb0000
:103fa0001007980034caa900770037001e0090005f
:103fb0004300dd00e6004000609e200000804000dd
:103fc000100078000000d100614060000004e000b3
:103fd0001e0032001e009000c300dd00609e200025
:103fe00000804000904078001e0078004040900023
:103ff00080cf500042003a001e009000c300dd0058
:10400000609e200000804000904090001e007800dc
:104010005040900080cf500039003a001e009000c0
:104020004300dd008080e800609e200000804000aa
:10403000904078001e0078006040900080cf5000d3
:104040002f003a0034caa8002d0037001e0090004f
:10405000c300dd00609e20000080400090017800d9
:104060009e007800014890000081fb0011489000fc
:104070000080fb004800dd0002007000808f5100ce
:104080000f003a001e0090004300dd008080e80031
:10409000609e200000804000900178009e00780023
:1040a000214890000081fb00314890000080fb0017
:1040b0004800dd0002007000808f51000f003200c8
:1040c0001e009000c300dd00609e200000804000c4
:1040d00010007800e10f400009003a001e00900037
:1040e0004300dd008080e800609e200000804000ea
:1040f00010007800e10f400001003a0034caa80027
:1041000034cabf000044b2000004e0001b003200cb
:104110001e0090004300dd00e4004000609e20008f
:1041200000804000104090002beab7001e00900075
:104130004300dd00e6004000609e2000008040005b
:10414000100078004200de00614060000004e000e2
:10415000070032001e0090004300dd00e400400034
:10416000609e2000008040001040780026eab700e2
:104170001000200020079800080037001e00900063
:104180000000e800100798001e0090000000e0000a
:1041900086ff32000000eb00200798002e00900000
:1041a0000080fa00000006000800fa00404798006e
:1041b0004e4090000004e00003003a00905180005f
:1041c000300798002000370081518000010f7800ef
:1041d000190037001e007800200090000000e00069
:1041e000130032001e00780020009000a000900014
:1041f000110798000b0037001e009000a058900097
:104200004e40900080cf500003003a001e00900006
:10421000300798000c0037001e00900090007800d6
:10422000110798001e0090000000e000f2ff3a0025
:104230001e007800100f78001e00e000e5ff3a0035
:104240000000eb00300798003e0090000080fa006c
:10425000000006003c00fa000000eb000017980088
:10426000f050800020cabf00704060000004e000f1
:1042700091063a0020cabf00614060000004e000df
:1042800049023a000040eb008d0607000000e00004
:1042900044023200e0508000005890008080fb0013
:1042a000000f200080806000511f98000002200055
:1042b000de189000808f5000b8003200000320000c
:1042c000de189000808f50006f0132005e18900061
:1042d000f00f50000100320026023700e05080004d
:1042e000005890000080fb006f006000401f9800a5
:1042f000ce189000e18f50001b0032004e18900045
:10430000e10f500004003c00ce1890000100e000d6
:10431000080032009e0037004e189000e20f500057
:1043200023003200ce189000ef8f50005d00320065
:1043300097003700e2508000b240900070cfb30089
:1043400000c0600030419800d0c0b300100b0700df
:10435000e050800020589000d1c0b300e20a07006e
:10436000200aa80054063700e2508000e050800088
:10437000900890000008900050019800610198009a
:10438000e1508000314090000034a000b04098001f
:1043900090c0b300fe0a0700e05080002058900053
:1043a00091c0b300d00a0700200aa80042063700d7
:1043b000e15080000040eb0080589800e150800000
:1043c000314090000014a000b0409800d05180000f
:1043d000e30f50002f003c00d05180000000e800a7
:1043e000d0518800b0518000e20f500004003c0022
:1043f000b05180000000e800b05188000200370092
:104400000000eb00b0518800b05180006c00b90092
:1044100080007800c0a3200000804000700f98004a
:10442000fe0890002007200080087800e0508000ff
:1044300090089000000890007e09900010019800fc
:1044400021019800e0508000b00890007e089000a4
:1044500031009800fe0890000040eb009048980062
:10446000e0508000a05890007e089000014898001d
:10447000e0508000b05890007e08900021489800dd
:10448000e0508000905890007e08900031489800dd
:10449000ba013700e150800080c0b300b0589800e6
:1044a000b6013700e15080000040eb0080589800d2
:1044b000e1508000314090000014a000b04098000e
:1044c000d0518000e30f50002d003c00d0518000ff
:1044d0000000e800d0518800b0518000e20f500089
:1044e00004003c00b05180000000e800b05188009a
:1044f000020037000000eb00b0518800b05180008e
:104500006c00b90080007800c0a32000008040004b
:10451000600f9800ee089000f0ff270080087800f8
:104520006e0990006000b800100198002101980009
:10453000ee0890000000eb00b0009800e050800012
:10454000c05890006e08900011489800e05080001c
:10455000a05890006e08900001489800e05080003c
:10456000b05890006e08900021489800e0508000fc
:10457000905890006e089000314898007f013700f5
:10458000e150800080c0b300b05898007b01370034
:10459000100020000017980078013700e0508000dc
:1045a000005890000080fb006f006000301f9800f2
:1045b0003e189000e20f500026003200be18900016
:1045c000e28f500007003c003e1890000000e00021
:1045d0000b003200be189000e18f50001500320031
:1045e000a60037003e189000e30f50002b00320069
:1045f000be189000ef8f5000650032009f0037001a
:10460000e2508000b240900070cfb30000c0600064
:1046100030419800d0c0b3005d0a0700e050800030
:1046200020589000d1c0b3002f0a0700200aa8002c
:10463000a105370090c0b300550a0700e050800084
:104640002058900091c0b300270a0700200aa80054
:1046500099053700e2508000e050800090089000fb
:10466000000890005001980061019800e15080001e
:10467000314090000034a000b040980010c0b3005a
:10468000430a0700e05080002058900011c0b3009a
:10469000150a0700200aa80087053700e1508000ae
:1046a0000040eb0080589800e150800031409000bd
:1046b0000014a000b0409800d0518000e30f5000db
:1046c0002f003c00d05180000000e800d05188004d
:1046d000b0518000e20f500004003c00b051800057
:1046e0000000e800b0518800020037000000eb0035
:1046f000b0518800b05180006c00b9008000780093
:10470000c0a3200000804000500f9800de089000f9
:104710002007200080087800e0508000900890007a
:10472000000890005e099000100198002101980097
:10473000e0508000b00890005e08900031009800c2
:10474000de0890000040eb0090489800e0508000a8
:10475000a05890005e08900001489800e05080004a
:10476000b05890005e08900021489800e05080000a
:10477000905890005e08900031489800ff00370084
:10478000e150800080c0b300b0589800fb003700b3
:10479000e15080000040eb0080589800e15080001c
:1047a000314090000014a000b0409800d05180002b
:1047b000e30f50002d003c00d05180000000e800c5
:1047c000d0518800b0518000e20f500004003c003e
:1047d000b05180000000e800b051880002003700ae
:1047e0000000eb00b0518800b05180006c00b900af
:1047f00080007800c0a3200000804000400f980097
:10480000ce089000f0ff2700800878004e09900045
:104810006000b8001001980021019800ce089000b7
:104820000000eb00b0009800e0508000c0589000fd
:104830004e08900011489800e0508000a058900069
:104840004e08900001489800e0508000b058900059
:104850004e08900021489800e05080009058900049
:104860004e08900031489800c4003700e1508000a5
:1048700080c0b300b0589800c0003700100020007e
:1048800000179800bd003700e050800000589000ed
:104890000080fb006f006000201f98002e18900021
:1048a000e20f500026003200ae189000e28f500058
:1048b00007003c002e1890000000e0000b003200c2
:1048c000ae189000e18f500015003200a6003700ae
:1048d0002e189000e30f50002b003200ae1890000d
:1048e000ef8f5000650032009f003700e2508000db
:1048f000b240900070cfb30000c06000304198001b
:10490000d0c0b300a2090700e050800020589000fa
:10491000d1c0b30074090700200aa800e6043700dc
:1049200010c0b3009a090700e050800020589000a2
:1049300011c0b3006c090700200aa800de0437008c
:10494000e2508000e0508000900890000008900045
:104950005001980061019800e150800031409000c2
:104960000034a000b040980090c0b3008809070050
:10497000e05080002058900091c0b3005a09070011
:10498000200aa800cc043700e15080000040eb0072
:1049900080589800e1508000314090000014a00041
:1049a000b0409800d0518000e30f50002f003c0031
:1049b000d05180000000e800d0518800b051800044
:1049c000e20f500004003c00b05180000000e800fd
:1049d000b0518800020037000000eb00b0518800a1
:1049e000b05180006c00b90080007800c0a32000a6
:1049f00000804000300f9800be0890002007200083
:104a000080087800e0508000900890000008900036
:104a10003e0990001001980021019800e0508000ac
:104a2000b00890003e08900031009800be08900049
:104a30000040eb0090489800e0508000a0589000a3
:104a40003e08900001489800e0508000b058900067
:104a50003e08900021489800e05080009058900057
:104a60003e0890003148980044003700e150800033
:104a700080c0b300b058980040003700e15080007b
:104a80000040eb0080589800e150800031409000d9
:104a90000014a000b0409800d0518000e30f5000f7
:104aa0002d003c00d05180000000e800d05188006b
:104ab000b0518000e20f500004003c00b051800073
:104ac0000000e800b0518800020037000000eb0051
:104ad000b0518800b05180006c00b90080007800af
:104ae000c0a3200000804000200f9800ae08900076
:104af000f0ff2700800878002e0990006000b800c1
:104b00001001980021019800ae0890000000eb0011
:104b1000b0009800e0508000c05890002e0890002f
:104b200011489800e0508000a05890002e08900096
:104b300001489800e0508000b05890002e08900086
:104b400021489800e0508000905890002e08900076
:104b50003148980009003700e150800080c0b30060
:104b6000b05898000500370010002000001798008a
:104b70000200370010002000001798000e1090006f
:104b80000000e00007003200e15080000040eb0030
:104b900080589800e1508000314090000014a0003f
:104ba000b0409800200aa80020cabf0064406000fe
:104bb0000004e0009f013a0010c0b3004004070069
:104bc0000000e0009a013200e050800000589000a0
:104bd0008080fb00000f200080806000111f980083
:104be000000620009e189000808f500005003200c3
:104bf000000720009e189000808f5000cc003200eb
:104c00007f013700e0508000005890000080fb00da
:104c10006f006000001f98000e189000e10f500018
:104c2000390032008e189000ef8f50008a00320059
:104c30000e1890000000e00001003200b9003700bb
:104c4000e0508000300090000000e0006e013a006b
:104c5000e1508000e050800020009000b0009800fb
:104c6000e05080003008900000017800e0508000a3
:104c700030089000104090000080fb006600b900f2
:104c80006a004000020040001000780061406000af
:104c90000004e0005c013a00e05080003008900021
:104ca00000017800e0508000300890001040900033
:104cb0000080fb006600b9006a00400082004000ee
:104cc000e0ff2f0091086000e25080006000b80013
:104cd0000009980011099800e2508000b24090004d
:104ce00070cfb30000c060003041980090c0b300a6
:104cf000a7080700e05080002058900091c0b30042
:104d000079080700ec033700e150800000c6b300cb
:104d100080589800e0508000300890000002780031
:104d2000e050800030089000104090000081fb00af
:104d3000e05080009008900000089000800178000a
:104d40006610b9006800400003307a00e05080002f
:104d50003008900000017800e0508000300890009a
:104d6000104090000080fb006600b9006a0040001f
:104d7000020040001000a000e05080001058900099
:104d80000080fb006a00b900e4004000c09d2000e4
:104d90000080400090017800e0508000000a900000
:104da000900a9000e05080003008900000017800e8
:104db000e050800030089000104090000080fb0020
:104dc0006600b900660040006001790029cabf0092
:104dd0007107200003000100e050800030089000bf
:104de00000017800e05080003008900010409000f2
:104df0000080fb006600b9006a00400082004000ad
:104e0000e0ff2f0091086000e05080003008900023
:104e100080007800114090000040e8009040980029
:104e2000e05080003008900090409000e0508000fa
:104e3000300890001040780080cf5000f200390018
:104e4000e050800030089000800078000040eb00c7
:104e500090409800ec003700e050800001c6b3009d
:104e600001589800d0518000e30f500029003c0009
:104e7000d05180000000e800d0518800b05180007f
:104e8000e20f500004003c00b05180000000e80038
:104e9000b0518800020037000000eb00b0518800dc
:104ea000b05180006c00b90080007800c0a32000e1
:104eb00000804000100f98009e089000f0ff27002f
:104ec000800878001e0990006000b800100198006a
:104ed000210198009e0890000000eb00b0009800af
:104ee000e0508000a05890001e08900001489800f3
:104ef000e0508000c05890001e08900011489800b3
:104f0000e0508000b05890001e08900021489800a2
:104f1000bd003700e150800080c0b300b058980059
:104f2000b90037001000200000179800b6003700c5
:104f3000e0508000005890000080fb006f0060008f
:104f400070179800fe109000e18f5000370032007b
:104f50007e109000ef0f50006f003200fe109000a6
:104f60000100e00001003200a2003700e0508000a4
:104f7000300090000000e000a3003a00e150800003
:104f8000e050800020009000b0009800e0508000c9
:104f90003008900000017800e05080003008900058
:104fa000104090000080fb006600b9006a004000dd
:104fb0000200400010007800614060000004e00042
:104fc00091003200e3508000e050800030089000f3
:104fd00000017800e0508000300890001040900000
:104fe0000080fb006600b9006800400060007900a6
:104ff000010020008009980091099800e25080008b
:10500000b240900070cfb30000c060003041980003
:1050100010c0b300de070700e05080002058900069
:1050200011c0b300b007070023033700e150800030
:1050300000c7b30080589800e0508000300890000e
:1050400000017800e050800030089000104090008f
:105050000080fb006600b9006a004000820040004a
:10506000e0ff2f0091086000e05080001058900091
:105070000080fb006a00b900e4004000c09d2000f1
:105080000080400090017800e0508000000a90000d
:10509000900a9000e05080003008900000017800f5
:1050a000e050800030089000104090000080fb002d
:1050b0006600b900660040006001790029cabf009f
:1050c0008107200003000100e050800030089000bc
:1050d00080007800114090000040e8009040980067
:1050e000e05080003008900090409000e050800038
:1050f000300890001040780080cf50004200390006
:10510000e050800030089000800078000040eb0004
:10511000904098003c003700e050800001c7b30089
:1051200001589800d0518000e30f50002d003c0042
:10513000d05180000000e800d0518800b0518000bc
:10514000e20f500004003c00b05180000000e80075
:10515000b0518800020037000000eb00b051880019
:10516000b05180006c00b90080007800c0a320001e
:1051700000804000000f98008e089000f0ff27008c
:10518000800878000e0990006000b80010019800b7
:10519000210198008e0890000000eb00b0009800fc
:1051a000e0508000c05890000e0890001148980010
:1051b000e0508000a05890000e0890000148980030
:1051c000e0508000b05890000e08900021489800f0
:1051d000e0508000905890000e08900031489800f0
:1051e00009003700e150800080c0b300b05898003b
:1051f000050037001000200000179800020037005b
:1052000010002000001798000e1090000000e00031
:1052100007003200e15080000040eb008058980009
:10522000e1508000314090000014a000b040980090
:10523000204aa80020cabf00624060000004e000cd
:1052400052013a0030c0b3009d0207000000e000a8
:105250004d013200e0508000005890008080fb003b
:10526000000f20008080600061179800000420007b
:10527000ee109000808f50000500320000052000e5
:10528000ee109000808f50009a00320032013700fb
:10529000e0508000005890000080fb006f0060002c
:1052a000501798005e109000e10f50001600320079
:1052b000de109000ef8f5000500032005e10900022
:1052c0000000e0000100320087003700e05080005d
:1052d000300090000000e00021013a00e150800021
:1052e000e050800020009000b000980090c0b30013
:1052f00027070700e05080002058900091c0b300bd
:10530000f90607006c023700e15080000040eb0016
:1053100080589800e1508000314090000014a000b7
:10532000b0409800d0518000e30f50002f003c00a7
:10533000d05180000000e800d0518800b0518000ba
:10534000e20f500004003c00b05180000000e80073
:10535000b0518800020037000000eb00b051880017
:10536000b05180006c00b90080007800c0a320001c
:105370000080400070079800fe0090002007200089
:1053800080087800e05080009008900000089000ad
:105390007e0190001001980021019800e0508000eb
:1053a000b00890007e00900031009800fe00900050
:1053b0000040eb0090489800e0508000a05890001a
:1053c0007e00900001489800e0508000b0589000a6
:1053d0007e00900021489800e05080009058900096
:1053e0007e00900031489800dd003700e1508000d9
:1053f00080c0b300b0589800d9003700e150800059
:105400000040eb0080589800e1508000314090004f
:105410000014a000b0409800d0518000e30f50006d
:105420002d003c00d05180000000e800d0518800e1
:10543000b0518000e20f500004003c00b0518000e9
:105440000000e800b0518800020037000000eb00c7
:10545000b0518800b05180006c00b9008000780025
:10546000c0a320000080400060079800ee0090007c
:10547000f0ff2700800878006e0190006000b800ff
:105480001001980021019800ee0090000000eb0050
:10549000b0009800e0508000c05890006e0090006e
:1054a00011489800e0508000a05890006e009000d5
:1054b00001489800e0508000b05890006e009000c5
:1054c00021489800e0508000905890006e009000b5
:1054d00031489800a2003700e150800080c0b3003e
:1054e000b05898009e003700100020000017980068
:1054f0009b003700e0508000005890000080fb00c7
:105500006f00600040179800ce109000e18f5000af
:10551000160032004e109000ef0f50005000320085
:10552000ce1090000100e00001003200870037003b
:10553000e0508000300090000000e00088003a0059
:10554000e1508000e050800020009000b000980002
:1055500010c0b3008e060700e05080002058900075
:1055600011c0b30060060700d3013700e15080008e
:105570000040eb0080589800e150800031409000de
:105580000014a000b0409800d0518000e30f5000fc
:105590002f003c00d05180000000e800d05188006e
:1055a000b0518000e20f500004003c00b051800078
:1055b0000000e800b0518800020037000000eb0056
:1055c000b0518800b05180006c00b90080007800b4
:1055d000c0a320000080400050079800de0090002b
:1055e0002007200080087800e0508000900890009c
:1055f000000890005e0190001001980021019800c1
:10560000e0508000b00890005e00900031009800eb
:10561000de0090000040eb0090489800e0508000d1
:10562000a05890005e00900001489800e050800073
:10563000b05890005e00900021489800e050800033
:10564000905890005e009000314898004400370068
:10565000e150800080c0b300b0589800400037008f
:10566000e15080000040eb0080589800e15080003d
:10567000314090000014a000b0409800d05180004c
:10568000e30f50002d003c00d05180000000e800e6
:10569000d0518800b0518000e20f500004003c005f
:1056a000b05180000000e800b051880002003700cf
:1056b0000000eb00b0518800b05180006c00b900d0
:1056c00080007800c0a320000080400040079800c0
:1056d000ce009000f0ff2700800878004e01900077
:1056e0006000b8001001980021019800ce009000e1
:1056f0000000eb00b0009800e0508000c05890001f
:105700004e00900011489800e0508000a058900092
:105710004e00900001489800e0508000b058900082
:105720004e00900021489800e05080009058900072
:105730004e0090003148980009003700e150800089
:1057400080c0b300b058980005003700100020005a
:105750000017980002003700100020000017980082
:105760000e1090000000e00007003200e1508000c1
:10577000314090000014a000b0409800e15080003b
:105780000040eb0080589800202aa80020cabf00e3
:10579000684060000004e00047013a0020c0b30008
:1057a000470107000000e0003c013200e0508000ab
:1057b000005890008080fb00000f20008080600077
:1057c0003117980000082000be109000808f500014
:1057d0000500320000092000be109000808f5000ac
:1057e0009200320021013700e05080000058900004
:1057f0000080fb006f006000201798002e109000c2
:10580000e10f50000e003200ae109000ef8f5000fc
:10581000480032002e1090000000e000010032002d
:105820007f00370090c0b300d9050700e05080002a
:105830002058900091c0b300ab0507001e0137004f
:10584000e15080000040eb0080589800e15080005b
:10585000314090000014a000b0409800d05180006a
:10586000e30f50002f003c00d05180000000e80002
:10587000d0518800b0518000e20f500004003c007d
:10588000b05180000000e800b051880002003700ed
:105890000000eb00b0518800b05180006c00b900ee
:1058a00080007800c0a320000080400030079800ee
:1058b000be0090002007200080087800e0508000a3
:1058c00090089000000890003e01900010019800a0
:1058d00021019800e0508000b00890003e00900048
:1058e00031009800be0090000040eb009048980006
:1058f000e0508000a05890003e00900001489800c1
:10590000e0508000b05890003e0090002148980080
:10591000e0508000905890003e0090003148980080
:10592000d4003700e150800080c0b300b058980028
:10593000d0003700e15080000040eb008058980014
:10594000e1508000314090000014a000b040980069
:10595000d0518000e30f50002d003c00d05180005a
:105960000000e800d0518800b0518000e20f5000e4
:1059700004003c00b05180000000e800b0518800f5
:10598000020037000000eb00b0518800b0518000e9
:105990006c00b90080007800c0a3200000804000a7
:1059a00020079800ae009000f0ff270080087800e4
:1059b0002e0190006000b8001001980021019800ad
:1059c000ae0090000000eb00b0009800e0508000b6
:1059d000c05890002e00900011489800e0508000c0
:1059e000a05890002e00900001489800e0508000e0
:1059f000b05890002e00900021489800e0508000a0
:105a0000905890002e00900031489800990037007f
:105a1000e150800080c0b300b05898009500370076
:105a2000100020000017980092003700e05080001e
:105a3000005890000080fb006f0060001017980075
:105a40009e109000e18f50000e0032001e1090005a
:105a5000ef0f5000480032009e1090000100e0005f
:105a6000010032007e00370010c0b3004805070077
